:020000040800F2
:1000000080060020810100082F0B00082D0B00083E
:1000100000000000000000000000000000000000E0
:10002000000000000000000000000000330B00088A
:100030000000000000000000310B0008350B000834
:100040009301000893010008930100089301000840
:100050009301000893010008930100089301000830
:100060009301000893010008930100089301000820
:100070009301000893010008930100089301000810
:100080009301000893010008930100089301000800
:1000900093010008930100089301000893010008F0
:1000A00093010008930100089301000893010008E0
:1000B00093010008410B0008930100089301000818
:1000C00000F002F800F04CF812A030C808382418EC
:1000D0002D18AC4201D100F043F80FCCA246AB463C
:1000E0000CA730CF2D1B083F3F197C427F1E544484
:1000F0002D090426F441641EAC4201D300F030F80F
:100100000126334200D0FB1A3343984754465D46DC
:10011000DFE700007C1D00009C1D0000103A02D3A8
:1001200078C878C1FAD8520701D330C830C101D598
:1001300004680C6070470000704700000023002432
:1001400000250026103A01D378C1FBD8520700D30E
:1001500030C100D50B6070471FB51FBD10B510BD75
:1001600000F04DF81146FFF7F7FF01F0E1FC00F059
:1001700065F803B4FFF7F2FF03BC00F06BF8000072
:100180000748804707480047FEE7FEE7FEE7FEE72F
:10019000FEE7FEE704480549054A064B70470000A4
:1001A0003D0B0008C10000088000002080060020F0
:1001B000800200208002002001E004C0091F042901
:1001C000FBD28B0701D50280801CC90700D00270CA
:1001D000704700290BD0C30702D00270401C491E93
:1001E000022904D3830702D50280801C891EE3E71D
:1001F0000022EEE70022DFE7704770477047754640
:1002000000F024F8AE46050069465346C008C00019
:10021000854618B020B5FFF7BDFF60BCB646002686
:100220000027C0C5C0C5C0C5C0C5C0C5C0C5C0C504
:10023000C0C5403D490849008D46704710B5044689
:10024000C046C0462046FFF794FF10BD00487047E7
:100250001000002001491820ABBEFEE72600020076
:1002600070470000F0B589B001900A68002A00D1FB
:10027000B5E00D465B48019B834201D0052000E0BC
:1002800004201721C9065918890A9B05591800919D
:10029000042900D3009000231C461F4607950AE05E
:1002A000114331607F1C2A681046F8401B1DA41CB6
:1002B000002800D193E001260396BE403240F1D0E1
:1002C0000292069303200146A140C9436A6815467D
:1002D00005406B1E012B059213D804910199886883
:1002E000049B1840079BDB68A34003438B60D00648
:1002F000C00FB8404B68B3430E4604990343736084
:1003000006E0032D019E03D10546069B029A20E0DC
:10031000F0680840079B9B68A3400343F360022DED
:10032000069B029A15D11C20184004910F21814090
:10033000FB089B00F3181D6A8D43079E31698140BD
:10034000294319620499069B7068019E0325059054
:100350000540A54030680840284330600598800378
:10036000800F079D9ED04A490868039D2843086076
:100370000868284008900C2018400F218140032372
:100380003D469D43089B194EAB598B4300998140D4
:100390001943A951079D144EB1686868C3020BD573
:1003A0001143B160F16883020BD49143F16071682D
:1003B00083030BD491430AE09143B160F168830257
:1003C000F3D51143F16071688303F3D51143069BA4
:1003D00071603168C00300D562E7914361E709B0FD
:1003E000F0BDC04600100048000401400800014074
:1003F000054800687047C0461A48007802490A68F4
:10040000101808607047C0467800002080B5854805
:10041000016810220A430260032000F005F800F092
:1004200023F8002080BDC04670B504467D20C00082
:100430000C4E317801F018FC01468448006801F048
:1004400013FC00F059FB0125032C08D8002806D125
:100450000025E84321462A4600F01CF8746028462F
:1004600070BDC0460000002082B00948016801222A
:10047000114301600168114001910199110742681F
:100480000A434260406808400090009802B07047FC
:1004900018100240002805D40322034693430A4A59
:1004A0009A1803E00C220240064BD2188007C00EB7
:1004B0008901C9B28140FF238340106898430843F3
:1004C0001060704714ED00E000E400E0F0B581B08A
:1004D000002846D00446534A1368012003408B424B
:1004E00008D213680126B3430B43136012683240ED
:1004F0008A4237D1009121688A074B4B10D54A07B1
:1005000006D5072212021B681343474A1360464B65
:100510001A68F0239A43A3681343434A1360424B7B
:10052000C90722D13F49086801263040009A90420D
:1005300005D90868B04308600868C00712D1207860
:10054000400706D50720000219688143E068084388
:1005500018601A681007810F3548022912D2044624
:1005600050E00126304601B0F0BD616803290DD08E
:100570001A1F02290FD0012912D1126892030646D0
:10058000F0D511E0032926D12A4C3BE01A6B9203E7
:100590000646E7D508E0126892010646E2D503E078
:1005A000126892070646DDD518680326B043084353
:1005B0001860FFF71DFF07461C4D1B4B18680C21E8
:1005C0000140606880008142ACD0FFF711FFC01B82
:1005D000A842F2D9C6E70321CB031349896A0F2445
:1005E0000C401549095D94021A40240F134D2C5DEF
:1005F0009A4202D033049A4200E00E4801F034FBE4
:100600004443094B18680006000F0D49085CC440BC
:100610000E4804600320FFF707FF0026304601B0B4
:10062000F0BDC046002002400410024088130000C4
:1006300000127A00006CDC027E1E00086E1E0008AC
:100640005E1E0008014800687047C0460800002090
:10065000F0B587B004460120002C00D145E204909B
:100660002078C007F94E05940CD071680C20014029
:10067000042900D090E03068800303D5606800282A
:1006800000D120E12078800721D570680007800F15
:100690000ED070680C210140082900D09DE0032095
:1006A000C003716801400120C003814200D094E082
:1006B00030688007059C03D5E068012800D002E17E
:1006C0003068F82188432169C90001433160059CE5
:1006D0002078000724D42078400737D42078C0063B
:1006E00000D4D3E005984069411D00D1C2E0012843
:1006F00000D030E1706B042101437163706B012104
:1007000001437163FFF774FE0546706B800700D5E7
:10071000B4E0FFF76DFE411B03200229F5D9E4E1A7
:10072000706AE169002900D181E00121084370620B
:10073000FFF75EFE0546706A8007CCD4FFF758FECF
:10074000401B0228F7D9032007B0F0BD0120039019
:100750000107F0690840029006D1F0690843F06192
:10076000F0690840069006980191E14F3868C0058D
:100770004AD403980402386820433860FFF738FEF3
:100780000546386820423FD1FFF732FE401B6428FF
:10079000F7D9032007B0F0BD71680140082908D1DE
:1007A0000320C0037168014001200004814200D190
:1007B00061E7616801204704002900D117E105299C
:1007C00000D12BE1012900D12CE1010432688A43D8
:1007D000326081043068884327E13068059CE16815
:1007E000002936D0012108433060FFF701FE05469D
:1007F0003068800700D563E7FFF7FAFD401B022849
:10080000F6D9032007B0F0BD05988068002800D114
:10081000B6E0052800D1C9E0012800D1CAE0306A5D
:10082000039988433062306A04218843C5E001217E
:1008300088437062FFF7DCFD0546706A800700D4CC
:1008400049E7FFF7D5FD401B0228F6D9032007B082
:10085000F0BD012188433060FFF7CAFD05463068CE
:10086000800700D433E7FFF7C3FD411B03200229B3
:10087000F5D93AE1706B042188437063706BF821FD
:10088000884305998969C900014371630598007817
:1008900080060BD571680C2001400C2939D1706B92
:1008A000800303D50598006A01280CD10598446A95
:1008B000002C00D1E1E070680C210140082905D12D
:1008C000012C00D0C4E0049807B0F0BD012002065E
:1008D00031680492914331604706FFF789FD054670
:1008E000022C0BD1049C3068384200D1DEE0FFF7C7
:1008F0007FFD411B03200229F5D9F6E0306838421C
:1009000000D1BAE0FFF774FD411B03200229F5D99D
:10091000EBE071680140082905D10320C00371682C
:1009200001408142BBD0706B0599096A002900D152
:10093000A9E001210A04104370634C04FFF758FD3D
:100940000546706B2042B1D1FFF752FD411B0320D9
:100950000229F6D9C9E0706B042101437163706B01
:10096000012188437063FFF743FD0546706B8007E4
:100970008CD5FFF73DFD411B03200229F6D9B4E0D9
:10098000306A039988433062306A042188433062B8
:10099000584CFFF72DFD0546306A80071DD5FFF73F
:1009A00027FD411B0320A142F6D99EE0306A0421B5
:1009B00001433162306A0399084330624D4CFFF7BE
:1009C00017FD0546306A800707D4FFF711FD401B6D
:1009D000A042F7D9032007B0F0BD02980028059C7B
:1009E00000D07BE6F06901998843F06176E6010466
:1009F00032688A4332608004316881433160FFF796
:100A0000F7FC0546059C3068384200D13AE6FFF70E
:100A1000EFFC411B03206429F5D966E081043268AC
:100A20000A4332600104306808433060FFF7E0FC9D
:100A300005463068384200D024E6FFF7D9FC401B59
:100A40006428F6D9032007B0F0BDC046001002406C
:100A50000320C20370680240F16A059CA36A9A42AF
:100A6000049D0DD10F221140236B994208D19104AE
:100A70000840E16A8842284637D1002007B0F0BD1F
:100A8000284607B0F0BD01210A04904370634C046E
:100A9000FFF7AEFC0546706B204200D106E7FFF77A
:100AA000A7FC411B03200229F5D91EE0F06A0F21A3
:100AB0008843059A116B0143F1627B20C003716882
:100AC0008143D06A0843916A0143716030682043D2
:100AD0003060FFF78DFC044630683842CDD1FFF717
:100AE00087FC011B03200229F6D907B0F0BDC046E0
:100AF0000070004088130000401E010E01D001204C
:100B000070470749074A5060074803680B400321B4
:100B10008907591801600020906007211160704713
:100B2000FFFFFF0010E000E020ED00E0FEE7FEE741
:100B30007047704780B5FFF75FFC80BD70470000CD
:100B40000348008803490870012048607047C04688
:100B50002448004070000020F0B587B0974C206812
:100B6000002808D12068002805D12068002802D17B
:100B700020680028F3D0924B1F78002121603D4669
:100B8000623D9048102D00D9BCE10122AA408E4E52
:100B9000324200D1B6E12268002A08D12268002A38
:100BA00005D12268002A02D12268002AF3D01E78DB
:100BB0003246303A032A00D2E3E00268120608D433
:100BC0000268120605D40268120602D402681206F0
:100BD000F3D5492282810268120608D402681206FF
:100BE00005D40268120602D402681206F3D56E22FA
:100BF000019282810268120608D40268120605D4A6
:100C00000268120602D402681206F3D563238381B8
:100C10000268120608D40268120605D40268120699
:100C200002D402681206F3D56F228281026812068E
:100C300008D40268120605D40268120602D40268BB
:100C40001206F3D50296722203928281026812067E
:100C500008D40268120605D40268120602D402689B
:100C60001206F3D53E46039A82810268120608D422
:100C70000268120605D40268120602D4026812063F
:100C8000F3D56522828107683F0608D407683F06CE
:100C900005D407683F0602D407683F06F3D5838171
:100CA00003681B0608D403681B0605D403681B06EB
:100CB00002D403681B06F3D5742383813746036887
:100CC0001B0608D403681B0605D403681B0602D460
:100CD00003681B06F3D520238381029E03681B064D
:100CE00008D403681B0605D403681B0602D40368F6
:100CF0001B06F3D5019B838103681B0608D4036898
:100D00001B0605D403681B0602D403681B06F3D533
:100D10007523838103681B0608D403681B0605D46A
:100D200003681B0602D403681B06F3D56D23838179
:100D300003681B0608D403681B0605D403681B065A
:100D400002D403681B06F3D56223838103681B0664
:100D500008D403681B0605D403681B0602D4036885
:100D60001B06F3D582810268120608D402681206B7
:100D700005D40268120602D402681206F3D5039A5B
:100D800082812160102D01D900F0CAFE6D00C0469D
:100D90007D44AD886D00AF447304C306C306C3062B
:100DA000C3061900C306C306C306C306C306C306AB
:100DB000C3066401C306C306AE05C0467400002026
:100DC000700000201C48004021200100322E00D17C
:100DD000E6E1312E00D195E2302E01D000F0A0FEE8
:100DE00001214902ED4A13688B431360016809062B
:100DF00008D40168090605D40168090602D401680F
:100E00000906F3D5472181810168090608D40168E4
:100E1000090605D40168090602D401680906F3D55C
:100E2000722181810168090608D40168090605D488
:100E30000168090602D401680906F3D5652181819C
:100E40000268120608D40268120605D40268120667
:100E500002D402681206F3D581810168090608D41C
:100E60000168090605D40168090602D4016809066B
:100E7000F3D56E2181810168090608D4016809064D
:100E800005D40168090602D401680906F3D52021BA
:100E900081810168090608D40168090605D4016842
:100EA000090602D401680906F3D54F218181016842
:100EB000090608D40168090605D40168090602D4A8
:100EC00001680906F3D5662181810268120601D501
:100ED00000F025FE0268120601D500F020FE02682F
:100EE000120601D500F01BFE02681206EDD500F0D7
:100EF00016FE0268120608D40268120605D40268BB
:100F0000120602D402681206F3D5492282810268D1
:100F1000120608D40268120605D40268120602D42A
:100F200002681206F3D503976E220292828102684C
:100F3000120608D40268120605D40268120602D40A
:100F400002681206F3D56322828107683F0608D43F
:100F500007683F0605D407683F0602D407683F06C6
:100F6000F3D56F27878107683F0608D407683F06D7
:100F700005D407683F0602D407683F06F3D57227F9
:100F800087810668360608D40668360605D40668E2
:100F9000360602D406683606F3D58781066836061B
:100FA00008D40668360605D40668360602D40668F4
:100FB0003606F3D565268681039F0668360608D473
:100FC0000668360605D40668360602D40668360674
:100FD000F3D582810268120608D40268120605D48D
:100FE0000268120602D402681206F3D574228281C6
:100FF0000268120608D40268120605D402681206B6
:1010000002D402681206F3D52022828102681206F9
:1010100008D40268120605D40268120602D40268D7
:101020001206F3D5702282810268120608D4026883
:10103000120605D40268120602D402681206F3D51D
:10104000692282810268120608D40268120605D459
:101050000268120602D402681206F3D5029A82814F
:1010600099E5322E00D1C4E1312E00D180E2302E3C
:1010700001D000F055FD01221202484B1C68944338
:101080001C600268120608D40268120605D40268C1
:10109000120602D402681206F3D54F228281036839
:1010A0001B0608D403681B0605D403681B0602D47C
:1010B00003681B06F3D57223838103681B0608D4DB
:1010C00003681B0605D403681B0602D403681B06CD
:1010D000F3D56123838103681B0608D403681B06CC
:1010E00005D403681B0602D403681B06F3D56E23E0
:1010F000838103681B0608D403681B0605D40368B4
:101100001B0602D403681B06F3D56723838103689B
:101110001B0608D403681B0605D403681B0602D40B
:1011200003681B06F3D56523838103681B0608D477
:1011300003681B0605D403681B0602D403681B065C
:10114000F3D52023838103681B0608D403681B069C
:1011500005D403681B0602D403681B06F3D58281FD
:101160000268120608D40268120605D40268120644
:1011700002D402681206F3D566248481026812063E
:1011800000D576E20268120600D572E20268120605
:1011900000D56EE202681206F0D56AE21408004833
:1011A00001214902F14A13684B40136001680906A6
:1011B00008D40168090605D40168090602D401684B
:1011C0000906F3D5472181810168090608D4016821
:1011D000090605D40168090602D401680906F3D599
:1011E000722181810168090608D40168090605D4C5
:1011F0000168090602D401680906F3D565218181D9
:101200000268120608D40268120605D402681206A3
:1012100002D402681206F3D581810268120608D44E
:101220000268120605D40268120602D40268120689
:10123000F3D56E2282810268120608D40268120673
:1012400005D40268120602D402681206F3D52022E1
:1012500082810268120608D40268120605D4026868
:10126000120602D402681206F3D554228281026863
:10127000120608D40268120605D40268120602D4C7
:1012800002681206F3D56F2282810268120608D422
:101290000268120605D40268120602D40268120619
:1012A000F3D56722828103681B0608D403681B06F6
:1012B00005D403681B0602D403681B06F3D582819C
:1012C0000268120608D40268120605D402681206E3
:1012D00002D402681206F3D56C22828102681206DB
:1012E00001D500F01CFC0268120601D500F017FCC5
:1012F0000268120601D500F012FC02681206EDD554
:1013000000F00DFC01214902984A13680B43136059
:101310000168090608D40168090605D401680906B0
:1013200002D401680906F3D54721818101680906C5
:1013300008D40168090605D40168090602D40168C9
:101340000906F3D5722181810168090608D4016874
:10135000090605D40168090602D401680906F3D517
:10136000652181810268120608D40268120605D43C
:101370000268120602D402681206F3D58181016860
:10138000090608D40168090605D40168090602D4D3
:1013900001680906F3D56E2181810268120608D41E
:1013A0000268120605D40268120602D40268120608
:1013B000F3D5202282810268120608D40268120640
:1013C00005D40268120602D402681206F3D54F2231
:1013D00082810268120600D5A1E30268120600D5D8
:1013E0009DE30268120600D599E302681206F0D563
:1013F00095E3012212025D4B1C6854401C60026898
:10140000120608D40268120605D40268120602D435
:1014100002681206F3D54F2282810268120608D4B0
:101420000268120605D40268120602D40268120687
:10143000F3D5722282810268120608D4026812066D
:1014400005D40268120602D402681206F3D561229E
:1014500082810268120608D40268120605D4026866
:10146000120602D402681206F3D56E228281026847
:10147000120608D40268120605D40268120602D4C5
:1014800002681206F3D56722828103681B0608D41E
:1014900003681B0605D403681B0602D403681B06F9
:1014A000F3D56524848103681B0608D403681B06F2
:1014B00005D403681B0602D403681B06F3D520235A
:1014C000838103681B0608D403681B0605D40368E0
:1014D0001B0602D403681B06F3D5542383810368DB
:1014E0001B0608D403681B0605D403681B0602D438
:1014F00003681B06F3D56F23838103681B0608D49A
:1015000003681B0605D403681B0602D403681B0688
:10151000F3D5828103681B0608D403681B0605D433
:1015200003681B0602D403681B06F3D58281026898
:10153000120608D40268120605D40268120602D404
:1015400002681206F3D56C2282810268120600D569
:101550008FE00268120600D58BE00268120600D503
:1015600087E002681206F0D583E0C0461408004800
:1015700001221202F34B1C6814431C60026812061D
:1015800008D40268120605D40268120602D4026862
:101590001206F3D54F22828103681B0608D4036824
:1015A0001B0605D403681B0602D403681B06F3D58B
:1015B0007223838103681B0608D403681B0605D4C5
:1015C00003681B0602D403681B06F3D561238381DD
:1015D00003681B0608D403681B0605D403681B06B2
:1015E00002D403681B06F3D56E24848103681B06AE
:1015F00008D403681B0605D403681B0602D40368DD
:101600001B06F3D56723838103681B0608D4036890
:101610001B0605D403681B0602D403681B06F3D51A
:101620006523838103681B0608D403681B0605D461
:1016300003681B0602D403681B06F3D520238381AD
:1016400003681B0608D403681B0605D403681B0641
:1016500002D403681B06F3D582810268120608D4FF
:101660000268120605D40268120602D40268120645
:10167000F3D58481722F00D13DE1622F00D04FE27B
:10168000322E25D0312E00D1BEE0302E00D047E2E0
:10169000AC4A13688024A3431360AB4A0592AB4A5B
:1016A00004920022422306E08381521C04AB9B5C1F
:1016B000002B00D11CE104682406F5D4046824063C
:1016C000F2D404682406EFD404682406F3D5EBE7CB
:1016D0009C4A136880245C4014600268120608D497
:1016E0000268120605D40268120602D402681206C5
:1016F000F3D5422282810268120608D402681206DB
:1017000005D40268120602D402681206F3D56C24CE
:1017100084810268120608D40268120605D40268A1
:10172000120602D402681206F3D57522828102687D
:10173000120608D40268120605D40268120602D402
:1017400002681206F3D56522828103681B0608D45D
:1017500003681B0605D403681B0602D403681B0636
:10176000F3D52023838103681B0608D403681B0676
:1017700005D403681B0602D403681B06F3D5542363
:10178000838103681B0608D403681B0605D403681D
:101790001B0602D403681B06F3D56F2383810368FD
:1017A0001B0608D403681B0605D403681B0602D475
:1017B00003681B06F3D56723838105682D0608D4CB
:1017C00005682D0605D405682D0602D405682D068A
:1017D000F3D5838103681B0608D403681B0605D470
:1017E00003681B0602D403681B06F3D584810368D3
:1017F0001B067CD403681B0679D403681B0676D4C9
:1018000003681B06F3D572E0C64A136880241C43A4
:1018100014600268120608D40268120605D4026831
:10182000120602D402681206F3D5422282810268AF
:10183000120608D40268120605D40268120602D401
:1018400002681206F3D56C2282810268120608D45F
:101850000268120605D40268120602D40268120653
:10186000F3D5752282810268120608D40268120636
:1018700005D40268120602D402681206F3D5652266
:1018800082810268120608D40268120605D4026832
:10189000120602D402681206F3D520228281026861
:1018A000120608D40268120605D40268120602D491
:1018B00002681206F3D54F2282810268120608D40C
:1018C0000268120605D40268120602D402681206E3
:1018D000F3D56622828103681B0608D403681B06C1
:1018E00005D403681B0602D403681B06F3D5828166
:1018F000722F00D014E1322E2AD0312E00D1B6E062
:10190000302E00D00CE1874A13684024A3431360B3
:10191000854A0592854A0492522206E08281491C3A
:1019200004AA525C002A00D1FAE003681B06F5D431
:1019300003681B06F2D403681B06EFD403681B067A
:10194000F3D5EBE714080048204F6E00426C756534
:1019500074490A68402353400B600168090608D4A3
:101960000168090605D40168090602D40168090660
:10197000F3D5522181810168090608D4016809065E
:1019800005D40168090602D401680906F3D565216A
:1019900081810268120608D40268120605D4026822
:1019A000120602D402681206F3D56422828102680C
:1019B000120608D40268120605D40268120602D480
:1019C00002681206F3D5202282810268120608D42A
:1019D0000268120605D40268120602D402681206D2
:1019E000F3D5542282810268120608D402681206D6
:1019F00005D40268120602D402681206F3D56F22DB
:101A000082810268120608D40268120605D40268B0
:101A1000120602D402681206F3D567228281036897
:101A20001B0608D403681B0605D403681B0602D4F2
:101A300003681B06F3D582810268120608D4026887
:101A4000120605D40268120602D402681206F3D503
:101A50006C2282810268120661D4026812065ED48A
:101A6000026812065BD402681206F3D557E02D49CE
:101A70000A68402313430B600168090608D4016813
:101A8000090605D40168090602D401680906F3D5E0
:101A9000522181810168090608D40168090605D42C
:101AA0000168090602D401680906F3D56521818120
:101AB0000168090608D40168090605D40168090609
:101AC00002D401680906F3D5642181810168090601
:101AD00008D40168090605D40168090602D4016822
:101AE0000906F3D5202181810168090608D401681F
:101AF000090605D40168090602D401680906F3D570
:101B00004F2181810168090608D40168090605D4BE
:101B10000168090602D401680906F3D56E218181A6
:101B200007B0F0BD140800484F6666005265642097
:101B300092B0FEF76BFC05AD281D3021FEF75AFB75
:101B400000240E941020099001260896022005908A
:101B50002846FEF77DFD002803D0EFF3108072B613
:101B6000FEE7039402940194072000906846214602
:101B7000FEF7ACFC002803D0EFF3108072B6FEE74E
:101B8000F0042A490A6802430A600A680240059282
:101B90000598B0048A6802438A608968014005910B
:101BA000059823A005A90A4618C818C238C838C223
:101BB00024A06C46224628C828C2A8C8A8C2264F1E
:101BC0003D46203D2846FEF74DFB28462146FEF7C0
:101BD00049FB3004396801433960300539680143F5
:101BE0003960FEF72FFDE121490200F03DF81B4965
:101BF000CA680243CA600868082202430A6008688B
:101C0000042202430A600868202202430A6008682E
:101C100030430860700712490860FF200002114934
:101C20000A6882430A60FEF797FFFCE7141002403F
:101C3000C0030000010000000000000000000000E0
:101C40000000000030000000020000000000000062
:101C5000000000000000000020080048004800408C
:101C600000E100E01CE400E043088B421AD30022AC
:101C700003098B4279D3030A8B425ED3030B8B4259
:101C800042D3030C8B4227D30902FF2212BA030C62
:101C90008B4202D31212090203D0030B8B4233D3BF
:101CA0001AE0D3E0411A8041401C704703460B43C1
:101CB00071D443088B42F5D3002203098B4254D3DD
:101CC000030A8B4239D3030B8B421DD3030C8B4287
:101CD00002D394466EE0090AC30B8B4201D3CB03B7
:101CE000C01A5241830B8B4201D38B03C01A52415D
:101CF000430B8B4201D34B03C01A5241030B8B425F
:101D000001D30B03C01A5241C30A8B4201D3CB0249
:101D1000C01A5241830A8B4201D38B02C01A52412E
:101D2000430A8B4201D34B02C01A5241030A8B4231
:101D300001D30B02C01A5241CDD2C3098B4201D349
:101D4000CB01C01A524183098B4201D38B01C01AC7
:101D5000524143098B4201D34B01C01A524103093E
:101D60008B4201D30B01C01A5241C3088B4201D3ED
:101D7000CB00C01A524183088B4201D38B00C01A9A
:101D8000524143088B4201D34B00C01A5241411AC1
:101D9000524110007047CA0F00D04942031000D3CF
:101DA0004042534000229C4603098B422DD3030A34
:101DB0008B4212D38901FC2212BA030A8B420CD344
:101DC000890192118B4208D3890192118B4204D36D
:101DD000890137D0921100E08909C3098B4201D3F0
:101DE000CB01C01A524183098B4201D38B01C01A27
:101DF000524143098B4201D34B01C01A524103099E
:101E00008B4201D30B01C01A5241C3088B4201D34C
:101E1000CB00C01A524183088B4201D38B00C01AF9
:101E20005241D9D243088B4201D34B00C01A5241D0
:101E3000411A00D201465241104663465B1000D35E
:101E40004042704763465B1000D3404201B5002119
:101E5000004201D0C9430846C046C04602BD00004A
:101E60000000000000000102030406070809020345
:101E70000405060708090A0B0C0D0E0F10100102CD
:101E8000030405060708090A0B0C0D0E0F100000CD
:101E9000B01E000800000020100000001C01000817
:101EA000C01E000810000020700600003C01000861
:101EB000010000000400000000127A000000000091
:04000005080000C12E
:00000001FF
